{
  "_format": "hh-sol-artifact-1",
  "contractName": "YieldVault",
  "sourceName": "contracts/YieldVault.sol",
  "abi": [
    {
      "inputs": [
        {
          "internalType": "address",
          "name": "_yieldToken",
          "type": "address"
        }
      ],
      "stateMutability": "nonpayable",
      "type": "constructor"
    },
    {
      "inputs": [],
      "name": "agreementCount",
      "outputs": [
        {
          "internalType": "uint256",
          "name": "",
          "type": "uint256"
        }
      ],
      "stateMutability": "view",
      "type": "function"
    },
    {
      "inputs": [
        {
          "internalType": "uint256",
          "name": "amount",
          "type": "uint256"
        },
        {
          "internalType": "uint256",
          "name": "duration",
          "type": "uint256"
        }
      ],
      "name": "deposit",
      "outputs": [],
      "stateMutability": "nonpayable",
      "type": "function"
    },
    {
      "inputs": [
        {
          "internalType": "uint256",
          "name": "",
          "type": "uint256"
        }
      ],
      "name": "fixedYieldAgreements",
      "outputs": [
        {
          "internalType": "address",
          "name": "depositor",
          "type": "address"
        },
        {
          "internalType": "uint256",
          "name": "amount",
          "type": "uint256"
        },
        {
          "internalType": "uint256",
          "name": "startTime",
          "type": "uint256"
        },
        {
          "internalType": "uint256",
          "name": "endTime",
          "type": "uint256"
        },
        {
          "internalType": "uint256",
          "name": "yieldAmount",
          "type": "uint256"
        },
        {
          "internalType": "bool",
          "name": "withdrawn",
          "type": "bool"
        }
      ],
      "stateMutability": "view",
      "type": "function"
    },
    {
      "inputs": [],
      "name": "owner",
      "outputs": [
        {
          "internalType": "address",
          "name": "",
          "type": "address"
        }
      ],
      "stateMutability": "view",
      "type": "function"
    },
    {
      "inputs": [
        {
          "internalType": "uint256",
          "name": "agreementId",
          "type": "uint256"
        }
      ],
      "name": "withdrawYield",
      "outputs": [],
      "stateMutability": "nonpayable",
      "type": "function"
    },
    {
      "inputs": [],
      "name": "yieldToken",
      "outputs": [
        {
          "internalType": "address",
          "name": "",
          "type": "address"
        }
      ],
      "stateMutability": "view",
      "type": "function"
    }
  ],
  "bytecode": "0x608060405234801561001057600080fd5b5060405161078438038061078483398101604081905261002f9161005d565b600080546001600160a01b039092166001600160a01b0319928316179055600180549091163317905561008d565b60006020828403121561006f57600080fd5b81516001600160a01b038116811461008657600080fd5b9392505050565b6106e88061009c6000396000f3fe608060405234801561001057600080fd5b50600436106100625760003560e01c80635cfd564d1461006757806376d5de85146100f75780638da5cb5b14610122578063ab31978f14610135578063bb7bb2781461014a578063e2bbb15814610161575b600080fd5b6100b96100753660046105d3565b60026020819052600091825260409091208054600182015492820154600383015460048401546005909401546001600160a01b039093169493919290919060ff1686565b604080516001600160a01b03909716875260208701959095529385019290925260608401526080830152151560a082015260c0015b60405180910390f35b60005461010a906001600160a01b031681565b6040516001600160a01b0390911681526020016100ee565b60015461010a906001600160a01b031681565b6101486101433660046105d3565b610174565b005b61015360035481565b6040519081526020016100ee565b61014861016f3660046105ec565b610390565b60035481106101c15760405162461bcd60e51b8152602060048201526014602482015273125b9d985b1a59081859dc99595b595b9d08125160621b60448201526064015b60405180910390fd5b6000818152600260205260409020546001600160a01b031633146102315760405162461bcd60e51b815260206004820152602160248201527f4f6e6c79206465706f7369746f722063616e207769746864726177207969656c6044820152601960fa1b60648201526084016101b8565b60008181526002602052604090206005015460ff16156102935760405162461bcd60e51b815260206004820152601760248201527f5969656c6420616c72656164792077697468647261776e00000000000000000060448201526064016101b8565b6000818152600260205260409020600301544210156102f45760405162461bcd60e51b815260206004820152601960248201527f41677265656d656e74206e6f7420796574206d6174757265640000000000000060448201526064016101b8565b60008181526002602052604080822060058101805460ff191660011790559154600492830154915163a9059cbb60e01b8152339381019390935260248301919091526001600160a01b03169063a9059cbb906044016020604051808303816000875af1158015610368573d6000803e3d6000fd5b505050506040513d601f19601f8201168201806040525081019061038c919061060e565b5050565b6000546040516323b872dd60e01b8152336004820152306024820152604481018490526001600160a01b03909116906323b872dd906064016020604051808303816000875af11580156103e7573d6000803e3d6000fd5b505050506040513d601f19601f8201168201806040525081019061040b919061060e565b6104495760405162461bcd60e51b815260206004820152600f60248201526e151c985b9cd9995c8819985a5b1959608a1b60448201526064016101b8565b60006104558383610593565b60005460405163a9059cbb60e01b8152336004820152602481018390529192506001600160a01b03169063a9059cbb906044016020604051808303816000875af11580156104a7573d6000803e3d6000fd5b505050506040513d601f19601f820116820180604052508101906104cb919061060e565b506040518060c00160405280336001600160a01b0316815260200184815260200142815260200183426104fe919061064d565b81526020808201849052600060409283018190526003805482526002808452848320865181546001600160a01b0319166001600160a01b0390911617815593860151600185015593850151938301939093556060840151828401556080840151600483015560a0909301516005909101805460ff191691151591909117905580549161058983610660565b9190505550505050565b600060058160646301e13380856105aa8589610679565b6105b49190610679565b6105be9190610690565b6105c89190610690565b925050505b92915050565b6000602082840312156105e557600080fd5b5035919050565b600080604083850312156105ff57600080fd5b50508035926020909101359150565b60006020828403121561062057600080fd5b8151801515811461063057600080fd5b9392505050565b634e487b7160e01b600052601160045260246000fd5b808201808211156105cd576105cd610637565b60006001820161067257610672610637565b5060010190565b80820281158282048414176105cd576105cd610637565b6000826106ad57634e487b7160e01b600052601260045260246000fd5b50049056fea26469706673582212200fbaed63054a97b06301baabad96e0b2b8d5905e14475fc5083cb0d591ab7eec64736f6c63430008140033",
  "linkReferences": {},
  "deployedLinkReferences": {}
}